{
  "address": "0xcFa0097bFBbE712a1FADCeDa6Ca84e1F74B39C1a",
  "abi": [
    {
      "inputs": [],
      "name": "InvalidInitialization",
      "type": "error"
    },
    {
      "inputs": [],
      "name": "NotInitializing",
      "type": "error"
    },
    {
      "inputs": [
        {
          "internalType": "address",
          "name": "owner",
          "type": "address"
        }
      ],
      "name": "OwnableInvalidOwner",
      "type": "error"
    },
    {
      "inputs": [
        {
          "internalType": "address",
          "name": "account",
          "type": "address"
        }
      ],
      "name": "OwnableUnauthorizedAccount",
      "type": "error"
    },
    {
      "anonymous": false,
      "inputs": [
        {
          "indexed": true,
          "internalType": "uint256",
          "name": "auctionId",
          "type": "uint256"
        },
        {
          "indexed": true,
          "internalType": "address",
          "name": "seller",
          "type": "address"
        },
        {
          "indexed": true,
          "internalType": "address",
          "name": "nftAddress",
          "type": "address"
        },
        {
          "indexed": false,
          "internalType": "uint256",
          "name": "tokenId",
          "type": "uint256"
        },
        {
          "indexed": false,
          "internalType": "uint256",
          "name": "startTime",
          "type": "uint256"
        },
        {
          "indexed": false,
          "internalType": "uint256",
          "name": "endTime",
          "type": "uint256"
        },
        {
          "indexed": false,
          "internalType": "address",
          "name": "paymentToken",
          "type": "address"
        }
      ],
      "name": "AuctionCreated",
      "type": "event"
    },
    {
      "anonymous": false,
      "inputs": [
        {
          "indexed": true,
          "internalType": "uint256",
          "name": "auctionId",
          "type": "uint256"
        },
        {
          "indexed": true,
          "internalType": "address",
          "name": "winner",
          "type": "address"
        },
        {
          "indexed": false,
          "internalType": "uint256",
          "name": "winnerBid",
          "type": "uint256"
        }
      ],
      "name": "AuctionEnded",
      "type": "event"
    },
    {
      "anonymous": false,
      "inputs": [
        {
          "indexed": true,
          "internalType": "uint256",
          "name": "auctionId",
          "type": "uint256"
        },
        {
          "indexed": true,
          "internalType": "address",
          "name": "bidder",
          "type": "address"
        },
        {
          "indexed": false,
          "internalType": "uint256",
          "name": "amount",
          "type": "uint256"
        },
        {
          "indexed": false,
          "internalType": "enum IAuction.BidType",
          "name": "bidType",
          "type": "uint8"
        }
      ],
      "name": "BidPlaced",
      "type": "event"
    },
    {
      "anonymous": false,
      "inputs": [
        {
          "indexed": false,
          "internalType": "uint64",
          "name": "version",
          "type": "uint64"
        }
      ],
      "name": "Initialized",
      "type": "event"
    },
    {
      "anonymous": false,
      "inputs": [
        {
          "indexed": true,
          "internalType": "address",
          "name": "previousOwner",
          "type": "address"
        },
        {
          "indexed": true,
          "internalType": "address",
          "name": "newOwner",
          "type": "address"
        }
      ],
      "name": "OwnershipTransferred",
      "type": "event"
    },
    {
      "inputs": [],
      "name": "auctionId",
      "outputs": [
        {
          "internalType": "uint256",
          "name": "",
          "type": "uint256"
        }
      ],
      "stateMutability": "view",
      "type": "function"
    },
    {
      "inputs": [],
      "name": "auctionStatus",
      "outputs": [
        {
          "internalType": "enum IAuction.AuctionStatus",
          "name": "",
          "type": "uint8"
        }
      ],
      "stateMutability": "view",
      "type": "function"
    },
    {
      "inputs": [
        {
          "internalType": "uint256",
          "name": "",
          "type": "uint256"
        }
      ],
      "name": "bids",
      "outputs": [
        {
          "internalType": "address",
          "name": "bidder",
          "type": "address"
        },
        {
          "internalType": "uint256",
          "name": "amount",
          "type": "uint256"
        },
        {
          "internalType": "enum IAuction.BidType",
          "name": "bidType",
          "type": "uint8"
        },
        {
          "internalType": "uint256",
          "name": "timestamp",
          "type": "uint256"
        }
      ],
      "stateMutability": "view",
      "type": "function"
    },
    {
      "inputs": [
        {
          "internalType": "uint256",
          "name": "amount",
          "type": "uint256"
        },
        {
          "internalType": "enum IAuction.BidType",
          "name": "bidType",
          "type": "uint8"
        },
        {
          "internalType": "address",
          "name": "token",
          "type": "address"
        }
      ],
      "name": "convertBidToUSD",
      "outputs": [
        {
          "internalType": "uint256",
          "name": "",
          "type": "uint256"
        }
      ],
      "stateMutability": "view",
      "type": "function"
    },
    {
      "inputs": [],
      "name": "endAuction",
      "outputs": [],
      "stateMutability": "nonpayable",
      "type": "function"
    },
    {
      "inputs": [],
      "name": "endTime",
      "outputs": [
        {
          "internalType": "uint256",
          "name": "",
          "type": "uint256"
        }
      ],
      "stateMutability": "view",
      "type": "function"
    },
    {
      "inputs": [
        {
          "internalType": "address",
          "name": "",
          "type": "address"
        }
      ],
      "name": "erc20UsdPriceFeed",
      "outputs": [
        {
          "internalType": "address",
          "name": "",
          "type": "address"
        }
      ],
      "stateMutability": "view",
      "type": "function"
    },
    {
      "inputs": [],
      "name": "ethUsdPriceFeed",
      "outputs": [
        {
          "internalType": "address",
          "name": "",
          "type": "address"
        }
      ],
      "stateMutability": "view",
      "type": "function"
    },
    {
      "inputs": [
        {
          "internalType": "uint256",
          "name": "index",
          "type": "uint256"
        }
      ],
      "name": "getBidAtIndex",
      "outputs": [
        {
          "components": [
            {
              "internalType": "address",
              "name": "bidder",
              "type": "address"
            },
            {
              "internalType": "uint256",
              "name": "amount",
              "type": "uint256"
            },
            {
              "internalType": "enum IAuction.BidType",
              "name": "bidType",
              "type": "uint8"
            },
            {
              "internalType": "uint256",
              "name": "timestamp",
              "type": "uint256"
            }
          ],
          "internalType": "struct IAuction.Bid",
          "name": "",
          "type": "tuple"
        }
      ],
      "stateMutability": "view",
      "type": "function"
    },
    {
      "inputs": [],
      "name": "getBidCount",
      "outputs": [
        {
          "internalType": "uint256",
          "name": "",
          "type": "uint256"
        }
      ],
      "stateMutability": "view",
      "type": "function"
    },
    {
      "inputs": [
        {
          "internalType": "address",
          "name": "erc20",
          "type": "address"
        }
      ],
      "name": "getErc20UsdPriceInUSD",
      "outputs": [
        {
          "internalType": "int256",
          "name": "",
          "type": "int256"
        }
      ],
      "stateMutability": "view",
      "type": "function"
    },
    {
      "inputs": [],
      "name": "getEthUsdPriceInUSD",
      "outputs": [
        {
          "internalType": "int256",
          "name": "",
          "type": "int256"
        }
      ],
      "stateMutability": "view",
      "type": "function"
    },
    {
      "inputs": [],
      "name": "getHighestBid",
      "outputs": [
        {
          "internalType": "uint256",
          "name": "",
          "type": "uint256"
        }
      ],
      "stateMutability": "view",
      "type": "function"
    },
    {
      "inputs": [],
      "name": "getHighestBidder",
      "outputs": [
        {
          "internalType": "address",
          "name": "",
          "type": "address"
        }
      ],
      "stateMutability": "view",
      "type": "function"
    },
    {
      "inputs": [],
      "name": "highestBid",
      "outputs": [
        {
          "internalType": "uint256",
          "name": "",
          "type": "uint256"
        }
      ],
      "stateMutability": "view",
      "type": "function"
    },
    {
      "inputs": [],
      "name": "highestBidder",
      "outputs": [
        {
          "internalType": "address",
          "name": "",
          "type": "address"
        }
      ],
      "stateMutability": "view",
      "type": "function"
    },
    {
      "inputs": [
        {
          "internalType": "uint256",
          "name": "_actionId",
          "type": "uint256"
        },
        {
          "internalType": "address",
          "name": "_seller",
          "type": "address"
        },
        {
          "internalType": "address",
          "name": "_nftAddress",
          "type": "address"
        },
        {
          "internalType": "uint256",
          "name": "_tokenId",
          "type": "uint256"
        },
        {
          "internalType": "uint256",
          "name": "_startTime",
          "type": "uint256"
        },
        {
          "internalType": "uint256",
          "name": "_endTime",
          "type": "uint256"
        },
        {
          "internalType": "address",
          "name": "_paymentToken",
          "type": "address"
        }
      ],
      "name": "initialize",
      "outputs": [],
      "stateMutability": "nonpayable",
      "type": "function"
    },
    {
      "inputs": [],
      "name": "nftAddress",
      "outputs": [
        {
          "internalType": "address",
          "name": "",
          "type": "address"
        }
      ],
      "stateMutability": "view",
      "type": "function"
    },
    {
      "inputs": [],
      "name": "owner",
      "outputs": [
        {
          "internalType": "address",
          "name": "",
          "type": "address"
        }
      ],
      "stateMutability": "view",
      "type": "function"
    },
    {
      "inputs": [],
      "name": "paymentToken",
      "outputs": [
        {
          "internalType": "address",
          "name": "",
          "type": "address"
        }
      ],
      "stateMutability": "view",
      "type": "function"
    },
    {
      "inputs": [
        {
          "internalType": "uint256",
          "name": "_amount",
          "type": "uint256"
        }
      ],
      "name": "placeBid",
      "outputs": [],
      "stateMutability": "payable",
      "type": "function"
    },
    {
      "inputs": [],
      "name": "renounceOwnership",
      "outputs": [],
      "stateMutability": "nonpayable",
      "type": "function"
    },
    {
      "inputs": [],
      "name": "seller",
      "outputs": [
        {
          "internalType": "address",
          "name": "",
          "type": "address"
        }
      ],
      "stateMutability": "view",
      "type": "function"
    },
    {
      "inputs": [],
      "name": "startTime",
      "outputs": [
        {
          "internalType": "uint256",
          "name": "",
          "type": "uint256"
        }
      ],
      "stateMutability": "view",
      "type": "function"
    },
    {
      "inputs": [],
      "name": "tokenId",
      "outputs": [
        {
          "internalType": "uint256",
          "name": "",
          "type": "uint256"
        }
      ],
      "stateMutability": "view",
      "type": "function"
    },
    {
      "inputs": [
        {
          "internalType": "address",
          "name": "newOwner",
          "type": "address"
        }
      ],
      "name": "transferOwnership",
      "outputs": [],
      "stateMutability": "nonpayable",
      "type": "function"
    }
  ],
  "transactionHash": "0x894e0bf2b1e9aa1d5ce1413be468dd17a3829e9c18ba64fc38101901a77ba0a3",
  "args": [],
  "numDeployments": 1,
  "solcInputHash": "404e3b6754ec70c85f1b6e46517fd2d2",
  "bytecode": "0x608060405234801561001057600080fd5b50611c13806100206000396000f3fe6080604052600436106101805760003560e01c80635bf8633a116100d15780639d6a0f281161008a578063e08e0ef011610064578063e08e0ef014610452578063f2fde38b14610472578063f4e624c514610492578063fe67a54b146104bf57600080fd5b80639d6a0f28146103ee578063a8fa8ae01461041c578063d57bde791461043c57600080fd5b80635bf8633a14610331578063715018a61461035157806378e97925146103685780638da5cb5b1461037e57806391f90157146103bb5780639979ef45146103db57600080fd5b80633013ce291161013e57806342f6fb291161011857806342f6fb29146102965780634423c5f1146102b65780634979440a146102e65780634f06ebac146102fb57600080fd5b80633013ce29146102405780633197cbb61461026057806335e09e471461027657600080fd5b80623495a41461018557806308551a53146101bc5780630fdb1011146101dc57806310782f8f146101ff57806317d70f7c1461021557806328f6a48a1461022b575b600080fd5b34801561019157600080fd5b506009546001600160a01b03165b6040516001600160a01b0390911681526020015b60405180910390f35b3480156101c857600080fd5b5060015461019f906001600160a01b031681565b3480156101e857600080fd5b506101f16104d4565b6040519081526020016101b3565b34801561020b57600080fd5b506101f160005481565b34801561022157600080fd5b506101f160035481565b34801561023757600080fd5b506007546101f1565b34801561024c57600080fd5b5060065461019f906001600160a01b031681565b34801561026c57600080fd5b506101f160055481565b34801561028257600080fd5b506101f1610291366004611843565b610559565b3480156102a257600080fd5b50600a5461019f906001600160a01b031681565b3480156102c257600080fd5b506102d66102d136600461185e565b610643565b6040516101b394939291906118a1565b3480156102f257600080fd5b506008546101f1565b34801561030757600080fd5b5061019f610316366004611843565b600b602052600090815260409020546001600160a01b031681565b34801561033d57600080fd5b5060025461019f906001600160a01b031681565b34801561035d57600080fd5b5061036661068a565b005b34801561037457600080fd5b506101f160045481565b34801561038a57600080fd5b507f9016d09d72d40fdae2fd8ceac6b6234c7706214fd39c1cd1e609a0528c199300546001600160a01b031661019f565b3480156103c757600080fd5b5060095461019f906001600160a01b031681565b6103666103e936600461185e565b61069e565b3480156103fa57600080fd5b5060065461040f90600160a01b900460ff1681565b6040516101b391906118d4565b34801561042857600080fd5b506103666104373660046118ee565b610c7f565b34801561044857600080fd5b506101f160085481565b34801561045e57600080fd5b506101f161046d366004611958565b6110d0565b34801561047e57600080fd5b5061036661048d366004611843565b6111b5565b34801561049e57600080fd5b506104b26104ad36600461185e565b6111f3565b6040516101b3919061199a565b3480156104cb57600080fd5b506103666112ee565b600080600a60009054906101000a90046001600160a01b03166001600160a01b031663feaf968c6040518163ffffffff1660e01b815260040160a060405180830381865afa15801561052a573d6000803e3d6000fd5b505050506040513d601f19601f8201168201806040525081019061054e91906119f1565b509195945050505050565b6001600160a01b038082166000908152600b6020526040812054909116806105d25760405162461bcd60e51b815260206004820152602160248201527f50726963652066656564206e6f742073657420666f72207468697320455243326044820152600360fc1b60648201526084015b60405180910390fd5b6000816001600160a01b031663feaf968c6040518163ffffffff1660e01b815260040160a060405180830381865afa158015610612573d6000803e3d6000fd5b505050506040513d601f19601f8201168201806040525081019061063691906119f1565b5091979650505050505050565b6007818154811061065357600080fd5b600091825260209091206004909102018054600182015460028301546003909301546001600160a01b0390921693509160ff169084565b610692611665565b61069c60006116c0565b565b6000600654600160a01b900460ff1660028111156106be576106be611877565b146107035760405162461bcd60e51b815260206004820152601560248201527441756374696f6e206973206e6f742061637469766560581b60448201526064016105c9565b60045442101561074b5760405162461bcd60e51b8152602060048201526013602482015272105d58dd1a5bdb881b9bdd081cdd185c9d1959606a1b60448201526064016105c9565b600554421061078c5760405162461bcd60e51b815260206004820152600d60248201526c105d58dd1a5bdb88195b991959609a1b60448201526064016105c9565b6001546001600160a01b031633036107e65760405162461bcd60e51b815260206004820181905260248201527f53656c6c65722063616e6e6f7420626964206f6e206f776e2061756374696f6e60448201526064016105c9565b600081116108425760405162461bcd60e51b8152602060048201526024808201527f42696420616d6f756e74206d7573742062652067726561746572207468616e206044820152637a65726f60e01b60648201526084016105c9565b60085481116108885760405162461bcd60e51b815260206004820152601260248201527142696420616d6f756e7420746f6f206c6f7760701b60448201526064016105c9565b6006546001600160a01b03166108fe578034146108f95760405162461bcd60e51b815260206004820152602960248201527f53656e742045544820616d6f756e7420646f6573206e6f74206d6174636820626044820152681a5908185b5bdd5b9d60ba1b60648201526084016105c9565b610a1b565b341561095c5760405162461bcd60e51b815260206004820152602760248201527f446f206e6f742073656e6420455448207768656e2062696464696e67207769746044820152660682045524332360cc1b60648201526084016105c9565b6006546040516323b872dd60e01b8152336004820152306024820152604481018390526001600160a01b03909116906323b872dd906064016020604051808303816000875af11580156109b3573d6000803e3d6000fd5b505050506040513d601f19601f820116820180604052508101906109d79190611a41565b610a1b5760405162461bcd60e51b8152602060048201526015602482015274115490cc8c081d1c985b9cd9995c8819985a5b1959605a1b60448201526064016105c9565b6009546001600160a01b031615610b3d576006546001600160a01b0316610a7e576009546008546040516001600160a01b039092169181156108fc0291906000818181858888f19350505050158015610a78573d6000803e3d6000fd5b50610b3d565b60065460095460085460405163a9059cbb60e01b81526001600160a01b039283166004820152602481019190915291169063a9059cbb906044016020604051808303816000875af1158015610ad7573d6000803e3d6000fd5b505050506040513d601f19601f82011682018060405250810190610afb9190611a41565b610b3d5760405162461bcd60e51b8152602060048201526013602482015272115490cc8c081c99599d5b990819985a5b1959606a1b60448201526064016105c9565b6008819055600980546001600160a01b031916339081179091556040805160808101825291825260208201839052600654600792918201906001600160a01b031615610b8a576001610b8d565b60005b6001811115610b9e57610b9e611877565b815242602091820152825460018082018555600094855293829020835160049092020180546001600160a01b0319166001600160a01b0390921691909117815590820151818401556040820151600282018054939492939192909160ff1916908381811115610c0f57610c0f611877565b0217905550606091909101516003909101556000546006543391907ff2adf7b58bf6f84c47a0d36351eb2f4ea4368a86f22908824e22f4446ea922589084906001600160a01b031615610c63576001610c66565b60005b604051610c74929190611a63565b60405180910390a350565b6000610c89611731565b805490915060ff600160401b820416159067ffffffffffffffff16600081158015610cb15750825b905060008267ffffffffffffffff166001148015610cce5750303b155b905081158015610cdc575080155b15610cfa5760405163f92ee8a960e01b815260040160405180910390fd5b845467ffffffffffffffff191660011785558315610d2457845460ff60401b1916600160401b1785555b610d2d3361175c565b6001600160a01b038b16610d7c5760405162461bcd60e51b8152602060048201526016602482015275496e76616c69642073656c6c6572206164647265737360501b60448201526064016105c9565b6001600160a01b038a16610dc85760405162461bcd60e51b8152602060048201526013602482015272496e76616c6964204e4654206164647265737360681b60448201526064016105c9565b42881015610e185760405162461bcd60e51b815260206004820152601c60248201527f53746172742074696d65206d75737420626520696e206675747572650000000060448201526064016105c9565b610e23426001611a8d565b8711610e655760405162461bcd60e51b8152602060048201526011602482015270105d58dd1a5bdb881d1bdbc81cda1bdc9d607a1b60448201526064016105c9565b868810610ea95760405162461bcd60e51b8152602060048201526012602482015271496e76616c69642074696d652072616e676560701b60448201526064016105c9565b6001600160a01b03861615610f1f576001600160a01b038681166000908152600b602052604090205416610f1f5760405162461bcd60e51b815260206004820152601b60248201527f5061796d656e7420746f6b656e206e6f7420737570706f72746564000000000060448201526064016105c9565b60008c9055600180546001600160a01b03199081166001600160a01b038e811691909117909255600280549091168c831617905560038a905560048990556005889055600680546001600160a81b03191691881691909117905560408051606081019091526023808252610f9c9190611bbb60208301393361176d565b600a80546001600160a01b031990811673694aa1769357215de4fac081bf1f309adc32530617909155731c7d4b196cb0c7b01d743fbc6116a902379c7238600052600b60209081527fc3e85d1ec6e26587ed27eb0ee076bcd380964279f523382893aa209e7da150d4805490921673a2f78ab2355fe2f984d808b5cee7fd0a93d5270e17909155604080518b81529182018a905281018890526001600160a01b0387811660608301528b811691908d16908e907ff3aebf3fc7b4410d04cf5a1439b060001c35fd42dfc80ddf2f02b82d2fce976e9060800160405180910390a483156110c257845460ff60401b19168555604051600181527fc7f505b2f371ae2175ee4913f4499e1f2633a7b5936321eed1cdaeb6115181d29060200160405180910390a15b505050505050505050505050565b6000808360018111156110e5576110e5611877565b0361115b5760006110f46104d4565b90506000811361113a5760405162461bcd60e51b8152602060048201526011602482015270496e76616c69642045544820707269636560781b60448201526064016105c9565b6305f5e1006111498287611aa0565b6111539190611ab7565b9150506111ae565b600061116683610559565b90506000811361113a5760405162461bcd60e51b8152602060048201526013602482015272496e76616c696420455243323020707269636560681b60448201526064016105c9565b9392505050565b6111bd611665565b6001600160a01b0381166111e757604051631e4fbdf760e01b8152600060048201526024016105c9565b6111f0816116c0565b50565b604080516080810182526000808252602082018190529181018290526060810191909152600754821061125e5760405162461bcd60e51b8152602060048201526013602482015272496e646578206f7574206f6620626f756e647360681b60448201526064016105c9565b6007828154811061127157611271611ad9565b600091825260209182902060408051608081018252600490930290910180546001600160a01b03168352600180820154948401949094526002810154929390929184019160ff16908111156112c8576112c8611877565b60018111156112d9576112d9611877565b81526020016003820154815250509050919050565b6000600654600160a01b900460ff16600281111561130e5761130e611877565b146113535760405162461bcd60e51b815260206004820152601560248201527441756374696f6e206973206e6f742061637469766560581b60448201526064016105c9565b6005544210158061136e57506001546001600160a01b031633145b6113d05760405162461bcd60e51b815260206004820152602d60248201527f41756374696f6e206e6f742079657420656e646564206f722063616c6c65722060448201526c34b9903737ba1039b2b63632b960991b60648201526084016105c9565b6006805460ff60a01b1916600160a01b1790556009546001600160a01b0316156115a8576002546009546003546040516323b872dd60e01b81523060048201526001600160a01b03928316602482015260448101919091529116906323b872dd90606401600060405180830381600087803b15801561144e57600080fd5b505af1158015611462573d6000803e3d6000fd5b505050506114886040518060a00160405280606b8152602001611b50606b91393061176d565b6006546001600160a01b03166114da576001546008546040516001600160a01b039092169181156108fc0291906000818181858888f193505050501580156114d4573d6000803e3d6000fd5b5061161b565b60065460015460085460405163a9059cbb60e01b81526001600160a01b039283166004820152602481019190915291169063a9059cbb906044016020604051808303816000875af1158015611533573d6000803e3d6000fd5b505050506040513d601f19601f820116820180604052508101906115579190611a41565b6115a35760405162461bcd60e51b815260206004820152601e60248201527f4552433230207061796d656e7420746f2073656c6c6572206661696c6564000060448201526064016105c9565b61161b565b6002546001546003546040516323b872dd60e01b81523060048201526001600160a01b03928316602482015260448101919091529116906323b872dd90606401600060405180830381600087803b15801561160257600080fd5b505af1158015611616573d6000803e3d6000fd5b505050505b6009546000546008546040519081526001600160a01b03909216917fd2aa34a4fdbbc6dff6a3e56f46e0f3ae2a31d7785ff3487aa5c95c642acea5019060200160405180910390a3565b336116977f9016d09d72d40fdae2fd8ceac6b6234c7706214fd39c1cd1e609a0528c199300546001600160a01b031690565b6001600160a01b03161461069c5760405163118cdaa760e01b81523360048201526024016105c9565b7f9016d09d72d40fdae2fd8ceac6b6234c7706214fd39c1cd1e609a0528c19930080546001600160a01b031981166001600160a01b03848116918217845560405192169182907f8be0079c531659141344cd1fd0a4f28419497f9722a3daafe3b4186f6b6457e090600090a3505050565b6000807ff0c57e16840df040f15088dc2f81fe391c3923bec73e23a9662efc9c229c6a005b92915050565b6117646117b6565b6111f0816117db565b6117b28282604051602401611783929190611aef565b60408051601f198184030181529190526020810180516001600160e01b031663319af33360e01b1790526117e3565b5050565b6117be6117ec565b61069c57604051631afcd79f60e31b815260040160405180910390fd5b6111bd6117b6565b6111f081611806565b60006117f6611731565b54600160401b900460ff16919050565b60006a636f6e736f6c652e6c6f679050600080835160208501845afa505050565b80356001600160a01b038116811461183e57600080fd5b919050565b60006020828403121561185557600080fd5b6111ae82611827565b60006020828403121561187057600080fd5b5035919050565b634e487b7160e01b600052602160045260246000fd5b6002811061189d5761189d611877565b9052565b6001600160a01b038516815260208101849052608081016118c5604083018561188d565b82606083015295945050505050565b60208101600383106118e8576118e8611877565b91905290565b600080600080600080600060e0888a03121561190957600080fd5b8735965061191960208901611827565b955061192760408901611827565b9450606088013593506080880135925060a0880135915061194a60c08901611827565b905092959891949750929550565b60008060006060848603121561196d57600080fd5b8335925060208401356002811061198357600080fd5b915061199160408501611827565b90509250925092565b81516001600160a01b031681526020808301519082015260408083015160808301916119c89084018261188d565b50606092830151919092015290565b805169ffffffffffffffffffff8116811461183e57600080fd5b600080600080600060a08688031215611a0957600080fd5b611a12866119d7565b9450602086015193506040860151925060608601519150611a35608087016119d7565b90509295509295909350565b600060208284031215611a5357600080fd5b815180151581146111ae57600080fd5b828152604081016111ae602083018461188d565b634e487b7160e01b600052601160045260246000fd5b8082018082111561175657611756611a77565b808202811582820484141761175657611756611a77565b600082611ad457634e487b7160e01b600052601260045260246000fd5b500490565b634e487b7160e01b600052603260045260246000fd5b604081526000835180604084015260005b81811015611b1d5760208187018101516060868401015201611b00565b50600060608285018101919091526001600160a01b03949094166020840152601f01601f19169091019091019291505056fe2d2d2d2d2d2d2d2d2d2d2d2d2d2d2d2d2d2d2d2d7768617420697320616464726573732874686973292d2d2d2d2d2d2d2d2d2d2d2d2d2d2d2d2d2d2d2d2d2d2d2d2d2d2d5472616e7366657272696e67204e465420746f20686967686573744269646465722c746869733a41756374696f6e2e736f6c2c41756374696f6e20696e697469616c697a65642062793aa2646970667358221220cc99672d1529a007a88b5f84a5b08f1b1bac2f082d385a1da8cc37be959d592f64736f6c63430008160033",
  "devdoc": {
    "errors": {
      "InvalidInitialization()": [
        {
          "details": "The contract is already initialized."
        }
      ],
      "NotInitializing()": [
        {
          "details": "The contract is not initializing."
        }
      ],
      "OwnableInvalidOwner(address)": [
        {
          "details": "The owner is not a valid owner account. (eg. `address(0)`)"
        }
      ],
      "OwnableUnauthorizedAccount(address)": [
        {
          "details": "The caller account is not authorized to perform an operation."
        }
      ]
    },
    "events": {
      "Initialized(uint64)": {
        "details": "Triggered when the contract has been initialized or reinitialized."
      }
    },
    "kind": "dev",
    "methods": {
      "owner()": {
        "details": "Returns the address of the current owner."
      },
      "renounceOwnership()": {
        "details": "Leaves the contract without owner. It will not be possible to call `onlyOwner` functions. Can only be called by the current owner. NOTE: Renouncing ownership will leave the contract without an owner, thereby disabling any functionality that is only available to the owner."
      },
      "transferOwnership(address)": {
        "details": "Transfers ownership of the contract to a new account (`newOwner`). Can only be called by the current owner."
      }
    },
    "version": 1
  },
  "userdoc": {
    "kind": "user",
    "methods": {
      "initialize(uint256,address,address,uint256,uint256,uint256,address)": {
        "notice": "override IAuction  initialize  initializer , OpenZeppelin  Initializable "
      }
    },
    "version": 1
  },
  "storageLayout": {
    "storage": [
      {
        "astId": 8287,
        "contract": "contracts/Auction.sol:Auction",
        "label": "auctionId",
        "offset": 0,
        "slot": "0",
        "type": "t_uint256"
      },
      {
        "astId": 8289,
        "contract": "contracts/Auction.sol:Auction",
        "label": "seller",
        "offset": 0,
        "slot": "1",
        "type": "t_address"
      },
      {
        "astId": 8291,
        "contract": "contracts/Auction.sol:Auction",
        "label": "nftAddress",
        "offset": 0,
        "slot": "2",
        "type": "t_address"
      },
      {
        "astId": 8293,
        "contract": "contracts/Auction.sol:Auction",
        "label": "tokenId",
        "offset": 0,
        "slot": "3",
        "type": "t_uint256"
      },
      {
        "astId": 8295,
        "contract": "contracts/Auction.sol:Auction",
        "label": "startTime",
        "offset": 0,
        "slot": "4",
        "type": "t_uint256"
      },
      {
        "astId": 8297,
        "contract": "contracts/Auction.sol:Auction",
        "label": "endTime",
        "offset": 0,
        "slot": "5",
        "type": "t_uint256"
      },
      {
        "astId": 8299,
        "contract": "contracts/Auction.sol:Auction",
        "label": "paymentToken",
        "offset": 0,
        "slot": "6",
        "type": "t_address"
      },
      {
        "astId": 8302,
        "contract": "contracts/Auction.sol:Auction",
        "label": "auctionStatus",
        "offset": 20,
        "slot": "6",
        "type": "t_enum(AuctionStatus)9370"
      },
      {
        "astId": 8306,
        "contract": "contracts/Auction.sol:Auction",
        "label": "bids",
        "offset": 0,
        "slot": "7",
        "type": "t_array(t_struct(Bid)9383_storage)dyn_storage"
      },
      {
        "astId": 8308,
        "contract": "contracts/Auction.sol:Auction",
        "label": "highestBid",
        "offset": 0,
        "slot": "8",
        "type": "t_uint256"
      },
      {
        "astId": 8310,
        "contract": "contracts/Auction.sol:Auction",
        "label": "highestBidder",
        "offset": 0,
        "slot": "9",
        "type": "t_address"
      },
      {
        "astId": 8312,
        "contract": "contracts/Auction.sol:Auction",
        "label": "ethUsdPriceFeed",
        "offset": 0,
        "slot": "10",
        "type": "t_address"
      },
      {
        "astId": 8316,
        "contract": "contracts/Auction.sol:Auction",
        "label": "erc20UsdPriceFeed",
        "offset": 0,
        "slot": "11",
        "type": "t_mapping(t_address,t_address)"
      }
    ],
    "types": {
      "t_address": {
        "encoding": "inplace",
        "label": "address",
        "numberOfBytes": "20"
      },
      "t_array(t_struct(Bid)9383_storage)dyn_storage": {
        "base": "t_struct(Bid)9383_storage",
        "encoding": "dynamic_array",
        "label": "struct IAuction.Bid[]",
        "numberOfBytes": "32"
      },
      "t_enum(AuctionStatus)9370": {
        "encoding": "inplace",
        "label": "enum IAuction.AuctionStatus",
        "numberOfBytes": "1"
      },
      "t_enum(BidType)9373": {
        "encoding": "inplace",
        "label": "enum IAuction.BidType",
        "numberOfBytes": "1"
      },
      "t_mapping(t_address,t_address)": {
        "encoding": "mapping",
        "key": "t_address",
        "label": "mapping(address => address)",
        "numberOfBytes": "32",
        "value": "t_address"
      },
      "t_struct(Bid)9383_storage": {
        "encoding": "inplace",
        "label": "struct IAuction.Bid",
        "members": [
          {
            "astId": 9375,
            "contract": "contracts/Auction.sol:Auction",
            "label": "bidder",
            "offset": 0,
            "slot": "0",
            "type": "t_address"
          },
          {
            "astId": 9377,
            "contract": "contracts/Auction.sol:Auction",
            "label": "amount",
            "offset": 0,
            "slot": "1",
            "type": "t_uint256"
          },
          {
            "astId": 9380,
            "contract": "contracts/Auction.sol:Auction",
            "label": "bidType",
            "offset": 0,
            "slot": "2",
            "type": "t_enum(BidType)9373"
          },
          {
            "astId": 9382,
            "contract": "contracts/Auction.sol:Auction",
            "label": "timestamp",
            "offset": 0,
            "slot": "3",
            "type": "t_uint256"
          }
        ],
        "numberOfBytes": "128"
      },
      "t_uint256": {
        "encoding": "inplace",
        "label": "uint256",
        "numberOfBytes": "32"
      }
    }
  }
}